:100000000C9431070C9416140C9478070C94780710
:100010000C9478070C9478070C9478070C94780764
:100020000C9478070C9478070C94C2300C9494319B
:100030000C94A9210C9478070C9478070C947807F9
:100040000C9478070C9478070C9478070C94780734
:100050000C9478070C941D220C9478070C94780764
:100060000C9478070C9478070C9478070C94780714
:100070000C9478070C9478070C9478070C94780704
:100080000C9478070C9478070C9478070C947807F4
:100090000C9478070C9478070C9478070C947807E4
:1000A0000C9478070C9478070C947807290F2C0F80
:1000B0004C0F5D0F650F700FC80FC80FC80FB60F3C
:1000C000B90F730F760F7B0F880F950F980F9C0F4A
:1000D000A90FCA17CA17FC17FC1749186718B219D5
:1000E000B219A918421953195319471A471A591A1C
:1000F000591A501A591A591A591A471A471A551A99
:10010000591A591A551A013228322033283220330D
:10011000743297322033EE32FD32290014001A0077
:10012000080015001700E000040016000700090091
:100130000A00E1001D001B00060019000500035124
:100140002B00E300E20002512C001C0018000C0000
:10015000120013002A000B000D000E000F003300E8
:1001600034001100100036003700380028002C0041
:1001700001512B004C004600035101001E001F00DE
:100180002000210022000100350038002F00260247
:100190002D000100350238022F0200002D0201005F
:1001A00001000100010001000100230024002500DE
:1001B0002600270001002E00270230003100000039
:1001C00001002E0200003002310201000100010096
:1001D0000100010001000100010001000000000019
:1001E0004B0000000000010000004A004E004D00DE
:1001F000000001000000500900004F09000001004C
:100200000100010001000100010000000000520097
:100210000000000001000000500051004F000000ED
:10022000010000002B0300002B0100000100010071
:1002300001000100010001000100005C00003A0023
:100240003B003C000000010000003D003E003F007C
:10025000000001000000AA000000A9000000010049
:100260000100010001000100010000004000410008
:1002700042000000005C0000430044004500000014
:1002800001000000AC00AE00AB0000000100010066
:100290000100010001000100010044454255473AB8
:1002A0002064697361626C65642E0A00444542559E
:1002B000473A20656E61626C65642E0A000000009A
:1002C00000000000002A2B280000000000000000B1
:1002D000000000000000000029000000002C1E3477
:1002E00020212224342627252E362D3738271E1F7D
:1002F000202122232425263333362E37381F0405A8
:10030000060708090A0B0C0D0E0F10111213141515
:10031000161718191A1B1C1D2F3130232D350405F3
:10032000060708090A0B0C0D0E0F101112131415F5
:10033000161718191A1B1C1D2F3130354C000000E0
:1003400000000000000000000000000000000000AD
:10035000007E0F00D4FFFFFFC7000000780A0025D1
:10036000303862003A200025303258000A722F637C
:100370002030313233343536370A000A0025303226
:100380005820006B6579626F6172645F7265706F8F
:1003900072743A20000A0025303258006B65796289
:1003A0006F6172645F7365745F6C65643A200029E5
:1003B0000A002575002F002575005D2800256400C2
:1003C0002000256400200025640020002564007CB6
:1003D0000025303258006D6F7573656B6579205B51
:1003E00062746E7C782079207620685D2872657052
:1003F0002F61636C293A205B006D6B5F77686565E0
:100400006C5F74696D655F746F5F6D6178203D200E
:1004100025640A006D6B5F776865656C5F6D617858
:100420005F7370656564203D2025640A006D6B5F15
:1004300074696D655F746F5F6D6178203D20256420
:100440000A006D6B5F6D61785F7370656564203D58
:100450002025640A006D6B5F696E74657276616C4D
:10046000203D2025640A006D6B5F64656C61792016
:100470003D2025640A006D6B5F776865656C5F746D
:10048000696D655F746F5F6D6178203D2025640A3A
:10049000006D6B5F776865656C5F6D61785F737029
:1004A000656564203D2025640A006D6B5F74696D8D
:1004B000655F746F5F6D6178203D2025640A006D73
:1004C0006B5F6D61785F7370656564203D202564A6
:1004D0000A006D6B5F696E74657276616C203D20F9
:1004E00025640A006D6B5F64656C6179203D202591
:1004F000640A000A00257500363A20776865656C45
:100500005F74696D655F746F5F6D61783A20000A92
:1005100000257500353A20776865656C5F6D6178F8
:100520005F73706565643A20000A00257500343AEF
:100530002074696D655F746F5F6D61783A20000AA1
:1005400000257500333A206D61785F7370656564CE
:100550003A20000A00257500323A20696E746572EF
:1005600076616C286D73293A20000A0025750031E8
:100570003A2064656C6179282A31306D73293A20FC
:10058000000A092D2056616C756573202D0A004DF7
:100590003E004D25643E20003F0073657420646575
:1005A0006661756C740A00433E2000776865726569
:1005B0002064656C74613A20637572736F723D25B7
:1005C000642C20776865656C3D25640A5365652059
:1005D000687474703A2F2F656E2E77696B69706539
:1005E0006469612E6F72672F77696B692F4D6F7524
:1005F00073655F6B6579730A000A092D204D6F756D
:1006000073656B6579202D0A4553432F713A097143
:100610007569740A313A0964656C6179282A313048
:100620006D73290A323A09696E74657276616C28B5
:100630006D73290A333A096D61785F73706565647B
:100640000A343A0974696D655F746F5F6D61780A89
:10065000353A09776865656C5F6D61785F737065C1
:1006600065640A363A09776865656C5F74696D651B
:100670005F746F5F6D61780A0A703A097072696E13
:10068000742076616C7565730A643A097365742029
:1006900064656661756C74730A75703A092B310A6A
:1006A000646F776E3A092D310A706775703A092BBD
:1006B00031300A7067646F776E3A092D31300A0A5B
:1006C0007370656564203D2064656C7461202A2028
:1006D0006D61785F7370656564202A20287265708B
:1006E000656174202F2074696D655F746F5F6D6143
:1006F00078290A003F004D3E2000433E20004C2553
:10070000640A0074696D65725F72656164333228D2
:10071000293A202530346C580A006B6579626F6184
:1007200072645F69646C653A2025580A006B6579CC
:10073000626F6172645F70726F746F636F6C3A2086
:1007400025580A00686F73745F6B6579626F617218
:10075000645F6C65647328293A2025580A000A09E9
:100760002D20537461747573202D0A004743433A5A
:1007700020352E342E30204156522D4C4942433ADA
:1007800020322E302E30204156525F415243483A9B
:1007900020617672350A004F5054494F4E533A202B
:1007A0004C554641204D4F5553454B4559204558D2
:1007B0005452414B455920434F4E534F4C452043D3
:1007C0004F4D4D414E4420343039360A0042554990
:1007D0004C443A2022302E382E38312D392D676482
:1007E00035613736372D64697274792220283136A5
:1007F0003A30383A3338204D61722033302032306D
:100800003230290A005649443A2030784131303399
:1008100028616930332044657369676E20537475AD
:1008200064696F29205049443A203078303031349F
:10083000284F726269745829205645523A20307800
:10084000303030310A00444553433A2048696768E4
:100850002D656E6420636F6D7061637420657267CF
:100860006F6E6F6D6963206B6579626F6172640A88
:10087000000A092D2056657273696F6E202D0A00DB
:100880000A092D20436F6E736F6C65202D0A455346
:10089000432F713A09717569740A6D3A096D6F7564
:1008A00073656B65790A000A092D204D61676963DC
:1008B000202D0A443A094465627567204D657373BB
:1008C00061676520546F67676C650A583A094D6126
:1008D00074726978204465627567204D6F64652085
:1008E000546F67676C65202D2053686F77206B65A8
:1008F000797072657373657320696E206D617472AF
:10090000697820677269640A4B3A094B6579626FAE
:1009100061726420446562756720546F67676C6517
:10092000202D2053686F77206B6579707265737323
:10093000207265706F72740A4D3A0944656275677A
:10094000204D6F75736520546F67676C650A563A62
:100950000956657273696F6E0A533A09537461746C
:1009600075730A433A09416374697661746520437B
:100970006F6E736F6C65204D6F64650A46312D464E
:1009800031303A0953776974636820746F204C6181
:1009900079657220302D392028463130203D204C99
:1009A00030290A302D393A09537769746368207405
:1009B0006F204C6179657220302D390A47524156BB
:1009C000453A0953776974636820746F204C6179E4
:1009D000657220302028616C7465726E61746529BF
:1009E0000A423A094A756D7020746F20426F6F7425
:1009F0006C6F616465720A4553433A094A756D70BC
:100A000020746F20426F6F746C6F61646572202870
:100A1000616C7465726E617465290A453A09507299
:100A2000696E7420454550524F4D2053657474696A
:100A30006E67730A4253504143453A09436C6561FE
:100A40007220454550524F4D0A000A002575002E70
:100A50006E6B726F3A20000A002575002E73776165
:100A6000705F6261636B736C6173685F6261636B1B
:100A700073706163653A20000A002575002E737754
:100A800061705F67726176655F6573633A20000A23
:100A9000002575002E6E6F5F6775693A20000A00A9
:100AA0002575002E737761705F72616C745F726779
:100AB00075693A20000A002575002E737761705F12
:100AC0006C616C745F6C6775693A20000A0025756B
:100AD000002E737761705F7263746C5F7267756903
:100AE0003A20000A002575002E737761705F6C63F1
:100AF000746C5F6C6775693A20000A002575002EDA
:100B0000636170736C6F636B5F746F5F636F6E7440
:100B1000726F6C3A20000A002575002E73776170A1
:100B20005F636F6E74726F6C5F636170736C6F6321
:100B30006B3A20000A0025303258006B65796D61F0
:100B4000705F636F6E6669672E7261773A20000A84
:100B5000002575002E6D6F7573653A20000A00251B
:100B600075002E6B6579626F6172643A20000A002D
:100B70002575002E6D61747269783A20000A00258F
:100B800075002E656E61626C653A20000A002530A2
:100B900032580064656275675F636F6E6669672EC1
:100BA0007261773A20000A002575006465666175F8
:100BB0006C745F6C617965723A20003F000A6D6F5A
:100BC0007573653A206F66660A000A6D6F75736506
:100BD0003A206F6E0A000A6B6579626F6172643A3F
:100BE000206F66660A000A6B6579626F6172643A0B
:100BF000206F6E0A000A6D61747269783A206F6620
:100C0000660A000A6D61747269783A206F6E0A0094
:100C10000A64656275673A206F66660A000A646551
:100C20006275673A206F6E0A000A0A4A756D70692C
:100C30006E6720746F20626F6F746C6F6164657291
:100C40002E2E2E2000433E2000436C656172696E9B
:100C50006720454550524F4D0A006565636F6E66CB
:100C600069673A0A005B735D004B6579626F617278
:100C7000642073746172742E0A005B575D005B53CD
:100C80005D005B525D005B445D005B435D000403FF
:100C9000300000000E034F00720062006900740013
:100CA0005800000026036100690030003300200076
:100CB000440065007300690067006E002000530067
:100CC00074007500640069006F00000004030904EB
:100CD00009027B00040100A0FA09040000010301DD
:100CE00001000921110100012240000705810308CC
:100CF000000A09040100020300000009211101009B
:100D000001222200070582032000010705030320BA
:100D10000001090402000103000000092111010083
:100D2000012281000705840320000A090403000250
:100D3000030000000921110100012222000705859E
:100D40000320000107050503200001120110010026
:100D500000000803A114000100010203010631FF95
:100D60000974A1010975150026FF009520750881F9
:100D7000020976150026FF00952075089102C0062D
:100D800060FF0961A1010962150026FF0095207529
:100D90000881020963150026FF009520750891025D
:100DA000C005010902A10185020901A10005091977
:100DB000012905150025019505750181029501752B
:100DC0000381010501093009311581257F950275DF
:100DD00008810609381581257F950175088106056A
:100DE0000C0A38021581257F950175088106C0C05F
:100DF00005010980A101850319012AB70015012603
:100E0000B700950175108100C0050C0901A101858D
:100E10000419012AA002150126A00295017510816E
:100E200000C005010906A101050719E029E7150021
:100E30002501950875018102950175088101050755
:100E4000190029FF150026FF009506750881000589
:100E50000819012905950575019102950175039100
:100E600001C011241FBECFEFDAE0DEBFCDBF04B654
:100E700003FE27C08091860290918702A09188028C
:100E8000B09189028730904BA740B04BD1F41092BB
:100E9000860210928702109288021092890214BE74
:100EA00084B7877F84BF0FB6F894A89580916000BF
:100EB000886180936000109260000FBEE0E0F8E36C
:100EC000099511E0A0E0B1E0E0EBF7E602C0059083
:100ED0000D92A23BB107D9F722E0A2EBB1E001C02D
:100EE0001D92A638B207E1F70E946C2D0C94D63300
:100EF0000C940000FF93EF93E091B201F091B301E5
:100F0000309709F00995EF91FF910895FC018591C3
:100F1000803011F0EFDFFBCF0895FF27E0E230E2F1
:100F200047FF0CC0419597FF09C0EDE260957095B1
:100F300080959095611D711D811D911D27FF02C037
:100F4000219530E350E2AA27660F771F881F991F6B
:100F5000AA1FA41710F0A41B63955A95A9F7AA30ED
:100F600008F0A95FA05DAF93F39561157105810548
:100F7000910541F7ED3211F4EF93F395F21718F460
:100F80003F93F395FBCF8F91B5DFFA95E1F7089585
:100F9000E991F9918591803021F0853219F0AADF2D
:100FA000F9CF089520E0E89455915532C1F35033BC
:100FB00011F4689455915A3348F4505390F3220F2A
:100FC000022E220F220F200D250FF4CF0EF42195B3
:100FD00089919991533619F3533729F1533559F1C2
:100FE000BC0188279927E8945C3621F4899199916E
:100FF00068945591543639F446EF7EF077FF0DC072
:101000008FEF9FEF0AC055374AE039F0583540E17D
:1010100021F0523642E009F00895FF93EF937DDF0F
:10102000EF91FF91B7CFFF93EF93FC018191803057
:10103000B9F360DFFBCFFF93EF9368DFF1CFDF936E
:10104000CF93CDB7DEB72596A3DFCF91DF9108957B
:1010500081E0089581E008950C942A0808950C9485
:101060002E081F93CF93DF9300D000D01F92CDB7EF
:10107000DEB749835A836B832091D30189819A819A
:10108000211112C0662349F00E941C1F182F682FDF
:1010900089819A810E94C31E03C00E94EF1E182FEF
:1010A00069817A81812F04C00E941C1F69817A8125
:1010B0000F900F900F900F900F90DF91CF911F9195
:1010C0000C949A10FC01408151816281738184816A
:1010D0000C943108CF93DF93EC010E946208BE01AB
:1010E000DF91CF910C942F08FF920F931F93CF9312
:1010F000DF93E82FF0E0E354FD4FF490C82FC6953E
:10110000C695C695D0E0FE01E35BFC4F0491877065
:1011100010E0082E02C0159507950A94E2F70170B9
:101120001127FE01E35CFC4FC491D0E002C0D595CD
:10113000C7958A95E2F7C170DD270115110519F0F1
:1011400081EE0E945C16209719F086EE0E945C16D4
:101150008F2D0E947317CD2B19F086EE0E940B176E
:10116000012B41F081EEDF91CF911F910F91FF9004
:101170000C940B17DF91CF911F910F91FF90089561
:10118000EF92FF920F931F93CF93DF93EC01162FF3
:101190000AE08881882309F457C0813009F045C0EE
:1011A0008981813051F47E0182E0E80EF11CCA8110
:1011B0008C2F0E945C168C2F12C0823049F47E0165
:1011C000E2E0EE0EF11C8A810E945C16E7012FC05E
:1011D000833041F47E01F2E0EF0EF11C8A810E941F
:1011E0000B17F4CF843011F0219621C02A8122966A
:1011F00080E090E030E0205331092A30310558F486
:10120000089FA001099F500D1124C901840F951F4B
:1012100021962881EFCF009751F0EFE9FFE0319759
:10122000F1F700C000000197F6CF0E9474082196E4
:10123000812F882309F4ADCFEFE9FFE03197F1F773
:1012400000C000008150F5CFDF91CF911F910F9129
:10125000FF90EF90089560E00C94C0088F929F92E9
:10126000AF92BF92CF92DF92EF92FF920F931F93B4
:101270006B017C0181E090E0A0E0B0E04C015D01F9
:1012800004C0880C991CAA1CBB1C4A95D2F7AC015F
:10129000BD0104C0440F551F661F771F2A95D2F762
:1012A000482959296A297B2904C0880F991FAA1F38
:1012B000BB1F0A95D2F78A019B010C211D212E210B
:1012C0003F21401751076207730739F4BC01CD0174
:1012D0006C297D298E299F290AC080959095A0951B
:1012E000B095BC01CD016C217D218E219F211F91E4
:1012F0000F91FF90EF90DF90CF90BF90AF909F90B5
:101300008F9008950F93382F262F60912A027091A5
:101310002B0280912C0290912D02042F432F0E94CA
:101320002E090F910C94FF1D0E9469220E945E20DD
:10133000811102C00E94FE200C944E0C0C944A0CA9
:1013400008950C94A00981E008950C94A309CF930B
:10135000C82F0E94A1098C2F0E94A509CF91089542
:1013600008950E94351A0E94B0092FEF84E39CE093
:10137000215080409040E1F700C000000C944322CF
:101380000F931F93CF93DF93EC010E9462088C01AF
:10139000BE010E94D80E882309F449C0BE01C801CD
:1013A0000E942C08882309F442C0BE01C8010E9493
:1013B000D0118823E1F1BE01C8010E9411128823D7
:1013C000B1F1BE01C8010E943C13882381F18A81DA
:1013D000882331F101308CE5180751F00E3D8CE582
:1013E0001807D9F001151C45D9F40E94B1091FC096
:1013F00080913F02C82FC095C170C0FB80F98093D7
:101400003F02CC2329F08CEA92E00E9486070FC0AD
:101410008AE992E00E9486070BC00E94FE2007C066
:10142000CE01DF91CF911F910F910C942808C0E05D
:101430008C2FDF91CF911F910F910895CF93DF9360
:101440000E949A100E94200BEC01811521E5920761
:1014500008F043C0811540E5940708F08AC0883E33
:10146000910520F5803E910508F0E6C0883A910587
:1014700070F4853A910508F074C08130910509F443
:10148000DBC008F4D7C0049708F0D6C0D3C08F3BA8
:10149000910508F0CFC0C85AD0E0CC0FDD1FCE5C5C
:1014A000DE4F0990D881C02DD464C6C0C11580E23A
:1014B000D80758F4C11521E0D20708F0BDC0C03FDD
:1014C000D10508F4B7C0D065B7C0C11540E4D40752
:1014D00008F4B0C0DF70D06AAFC0C11585E5D80789
:1014E000A0F4C11524E5D20708F08AC0C11543E570
:1014F000D40708F06FC0C11582E5D80708F054C0C2
:10150000DC2FCC27C16FD06A97C0C11529E5D2075F
:10151000A0F4C11548E5D40708F077C0C11586E5E9
:10152000D80708F087C08C2F0E94B40B8F71C82F8A
:10153000D0E0DC2FCC27D0627FC0C1152AE5D207CE
:1015400008F468C0CE0190568115904208F072C030
:101550008D2F8F710E94B40BDD27D0628F71D82B35
:101560006BC0C55AD0E0C05ADE4FC881D0E0D0640D
:1015700063C074E0969587957A95E1F783709C2F08
:10158000937021E030E002C0220F331F9A95E2F7FA
:101590003C68382BCF70C695C69580E2C89FE001A5
:1015A0001124C22BD32B48C0CE018370992721E090
:1015B00030E002C0220F331F8A95E2F78C2F869508
:1015C000869540E2849FC0011124E901C82BD92BE4
:1015D000DC6832C0CE018370992721E030E002C080
:1015E000220F331F8A95E2F78C2F8695869540E26D
:1015F000849FC0011124E901C82BD92BDA681CC0D3
:10160000DC2FCC27C46FD06A17C0DC2FCC27C06F6B
:10161000D06A12C08C2F8F700E94B40B94E0D695C4
:10162000C7959A95E1F7CF70D0E0DC2FCC27D06931
:10163000C82B02C0C0E0D0E0CE01DF91CF91089569
:101640008238910569F1B0F48133910509F46DC0D8
:1016500048F48932910509F463C08A32910509F48E
:1016600069C008958533910509F455C08933910502
:10167000B9F00895833E910569F138F4803E9105F3
:10168000B1F0823E910509F10895863E9105A9F1D8
:10169000873E9105B9F1843E910509F064C023C0ED
:1016A0002091770220FD4FC021FD4DC0089580910B
:1016B000770280FD44C08091780280FF44C0809111
:1016C000770284FD42C083EE4DC08091770282FF95
:1016D00038C0F5CF8091770282FD33C080917802C7
:1016E00080FD31C0ECCF8091780281FF32C08091C3
:1016F000770284FD2AC087EE35C08091770283FF90
:1017000026C0F5CF8091770283FD21C080917802B9
:1017100081FD1FC0ECCF8091770285FD1CC01DC0EC
:101720008091770285FD19C016C08091770286FDF1
:1017300016C017C08091770286FD13C010C089E3E0
:1017400011C082EE0FC080EE0DC080E00BC086EEAF
:1017500009C084EE07C089E205C085E303C08AE2C0
:1017600001C081E390E008959091770292FF0DC04F
:10177000282F2871283019F4877F846006C0282F0D
:101780002471243011F48B7F886093FF0DC0282FC3
:101790002871283119F4877E846106C0282F2471AE
:1017A000243111F48B7E88612091780220FF0DC0D6
:1017B000382F3871383019F4877F816006C0382F90
:1017C0003171313011F48E7F886021FF0DC0282FD8
:1017D0002871283119F4877E816106C0282F217174
:1017E000213111F48E7E886194FD877E0895E82F63
:1017F000F0E0E959FD4F80810895CF92DF92EF929A
:10180000FF920F931F93CF93DF938CE693E00E9498
:10181000860787E6E82E82E0F82EC0E0D0E097E663
:10182000C92E93E0D92E0FE513E0DF93CF93DF921B
:10183000CF920E941F0884E693E00E948607F7017A
:1018400081917F010E9446201F928F931F930F93D7
:101850000E941F088DE593E00E94860721968DB7B0
:101860009EB708960FB6F8949EBF0FBE8DBFC830C6
:10187000D105D9F6DF91CF911F910F91FF90EF9095
:10188000DF90CF90089580EA8A95F1F70895089542
:101890000C94470C0C94480C0C94470C0C944C0C76
:1018A00008950F931F93CF93DF93CDB7DEB72E9795
:1018B0000FB6F894DEBF0FBECDBF0E94340E8091EC
:1018C0000E0181112BC0FE01319688E0DF011D92CF
:1018D0008A95E9F785E3898387E98A8384E38B83A3
:1018E00084E98C83A6E0B1E0CE01099621912D9385
:1018F0008E179F07D9F726E0ECE2F1E0DE0119969A
:1019000001900D922A95E1F7FC01A0E0B1E0CE0133
:101910000F9621912D938E179F07D9F780910E0175
:10192000811102C094E001C090E09093700284E0C5
:10193000891B80936F02A6E0B1E04AE051E061E0CC
:1019400070E08D91E82FE295EF70F0E021A18F70AB
:101950008B0102C0000F111F8A95E2F7C801902F7A
:101960009095922391A392A1892B82A34A175B079A
:1019700041F7A0E0B1E046E051E061E070E08D9118
:10198000E82FE295EF70F0E021A18F708B0102C08B
:10199000000F111F8A95E2F7C801902F90959223AE
:1019A00091A392A1892B82A34A175B0741F7EFE528
:1019B000F2E0A7E6B2E087E692E011921D928E1760
:1019C0009F07D9F784E00E94CC0D0E9494092E96BF
:1019D0000FB6F894DEBF0FBECDBFDF91CF911F9140
:1019E0000F910C943E0E0E94200E8823F1F08091FE
:1019F0006F0290E089599D4F0E94510E811111C0D4
:101A00008091B4018F5F8093B401863060F0E091E3
:101A10006F02F0E0E959FD4F1082118212821382A9
:101A200002C01092B4010C949E098091700290E063
:101A300089599D4F0E946C0E0C94500C8F929F926E
:101A4000AF92BF92CF92DF92EF92FF920F931F93CC
:101A5000CF93DF9306E011E0CFE5D2E083E6E82EF6
:101A600082E0F82E912CAA24A394B12C6E018880D8
:101A70001882F8018081E82FE295EF70F0E021A153
:101A80008F70A50102C0440F551F8A95E2F7CA0165
:101A9000822B81A3F8018081E82FE295EF70F0E0BE
:101AA00092A18F70950101C0220F8A95EAF7822FCB
:101AB0008095892382A30E94430CE0E0F1E020E0BE
:101AC00030E09191A92FA295AF70B0E090964C9123
:101AD000688150E09F7002C0559547959A95E2F74E
:101AE00040FD08C09A2D022E01C0990F0A94EAF712
:101AF000892F01C080E0862B88832F5F3F4F2630DF
:101B00003105F9F6F8018081E82FE295EF70F0E0F9
:101B100091A18F70950101C0220F8A95EAF7822F5B
:101B20008095892381A3F80181918F01E82FE295A7
:101B3000EF70F0E022A18F70A50102C0440F551F85
:101B40008A95E2F7CA01822B82A3219681E0F601F1
:101B50009081981101C080E0982AEC16FD0609F0EA
:101B600085CF6091700270E069597D4F292D44E066
:101B70008FE592E00E94CD0D0E94F30C892DDF913C
:101B8000CF911F910F91FF90EF90DF90CF90BF907A
:101B9000AF909F908F9008950895FF920F931F9399
:101BA000CF93DF938C01F62ED72FC42F222349F039
:101BB00081E08093B7010E94DB219093B60180936E
:101BC000B5018091B7018823C1F08091B501909152
:101BD000B6010E94F321069780F0EF2DFD2FD8016A
:101BE0004C2F50E0CD01801B910B841795071CF4FE
:101BF0008D918193F7CF1092B701DF91CF911F9113
:101C00000F91FF9008958AEF9091E30097FD0FC028
:101C1000EFE3FCE93197F1F700C000008150A1F734
:101C20008091D8008F768093D80080E0089581E07D
:101C3000089555985D9889B185FB882780F90895A6
:101C40008091B801811109C00E94030E811102C068
:101C500082E001C081E08093B80181E09091B801F9
:101C6000913009F080E008950E94190E80930E01D2
:101C70000E94200E81110C94450E08950E94200EA2
:101C8000811102C00C944B0E089561E070E08FE06A
:101C900091E00C94C81361E070E08FE091E00C9447
:101CA000CF13CF93DF93D82FC92F0E946714892BAE
:101CB00079F4ED2FFC2F80E090E0DC01A654BE4FBC
:101CC0002C912193019684309105B9F781E001C0F0
:101CD00080E0DF91CF91089520E030E0FC01419158
:101CE000CF01F901E654FE4F40832F5F3F4F243070
:101CF0003105A1F7089582E290E00E94943380328A
:101D000081F483E290E00E949433833051F484E2C2
:101D100090E00E94943391E0803309F090E0892FA5
:101D200001C080E081700895CF93C82F811102C057
:101D30006FEF01C060E282E290E00E94A233C11125
:101D400002C06FEF01C063E083E290E00E94A23323
:101D5000C11102C06FEF01C060E384E290E0CF9157
:101D60000C94A23380E00E94940E0C9458200895A5
:101D700085E290E00E949433682F70E080E090E06C
:101D8000089585E290E00C94A2330E94B70E0E9461
:101D90007B0E81110CC060E070E0CB010E94C10E8F
:101DA0000E9415100E94F41081E00C94940E089586
:101DB000CF93FB01C281CC23E9F09C0122513F4526
:101DC0002031310520F482510E9404110CC0803171
:101DD000FFE59F0751F481E00E94251E43E062E089
:101DE00081E00E948209C0E018C081319F45A9F4BA
:101DF00082E0F2CF8031EFE59E0711F481E004C06C
:101E000081319F4549F482E00E94461E43E062E032
:101E100081E00E94820901C0C1E08C2FCF9108951A
:101E20002FEFFC0120830895EF92FF920F931F93F1
:101E3000CF93DF93EC01162FE8818E2F90E0FC0109
:101E40003197E331F10508F0A3C0EA5AFF4F0C9433
:101E50007333198289E04DC08981823039F0833033
:101E600061F0813029F50E94E72102C00E94B80E7E
:101E70009A838B837C836D838DC07E0122E0E20E8A
:101E8000F11C00E0802F0E94F70BF70181937F0186
:101E90000F5F0830B9F77EC08981823049F46A81CA
:101EA0007B818C819D810E9479330E94C10E72C01A
:101EB000612FCE010E94100F6DC04B816A81898114
:101EC0000E94E70F9C838D8365C02C813D81322762
:101ED000232732274B816A8189810E9400105AC0D2
:101EE0000E94151057C00E94A71024C00E94A9107C
:101EF00099838A834FC06B8170E089819A81AE019A
:101F00004C5F5F4F9827892798270E94AC1042C0EA
:101F10006B8170E089819A81AE014C5F5F4F982799
:101F2000892798270E94D11035C00E94F41032C032
:101F30000E94D40F89832EC06B8170E089819A81C1
:101F4000AE014C5F5F4F9827892798270E94541055
:101F500021C06B8170E089819A81AE014C5F5F4F37
:101F60009827892798270E94781014C00E94B20EE3
:101F700011C0CE010E94042CFFEF21EE84E0F1504D
:101F800020408040E1F700C000000E94432202C0D0
:101F90008FEF8883612FCE01DF91CF911F910F9139
:101FA000FF90EF900C94042C84E0089550E0440FCF
:101FB000551F2CE0629F400D511D11249A0160E6CF
:101FC000869F200D311D1124C901869608950F9317
:101FD0001F93CF93DF930E94D60F8C010E949433FE
:101FE000C82FD0E0DC2FCC27C80101960E94943383
:101FF0009E01282BC901DF91CF911F910F91089568
:102000000F931F93CF93DF93122F032F0E94D60FAE
:10201000EC01602F0E94A233612FCE010196DF9167
:10202000CF911F910F910C94A233AF92BF92CF9298
:10203000DF92EF92FF920F931F93CF93DF93A12C28
:10204000E12CF12CB12C00E010E0C0E0D0E0670101
:10205000C00ED11EFE01EE0FFF1FEC0DFD1DE65E52
:10206000FE4F259134914C2F6B2D8A2D0E9400102C
:102070002196C630D10571F7045F1F4FB39488E0F5
:10208000B812E3CF80E6E80EF11CA39484E0A81216
:10209000D9CFDF91CF911F910F91FF90EF90DF90FB
:1020A000CF90BF90AF900895EF92FF920F931F9340
:1020B000CF93DF93EA017A01E60EF71E8C01C80187
:1020C0008696CE15DF0569F0003821E0120720F46E
:1020D0000E949433888301C0188221960F5F1F4F9E
:1020E000EECFDF91CF911F910F91FF90EF90089568
:1020F000EF92FF920F931F93CF93DF93EA017A0140
:10210000E60EF71E8C01C8018696CE15DF0559F044
:10211000003821E0120718F468810E94A23321964A
:102120000F5F1F4FF0CFDF91CF911F910F91FF9065
:10213000EF900895462F843038F4783028F46630D4
:1021400018F4672F0C94E70F80E090E0089580E189
:1021500008958AE592E00895EF92FF920F931F93FE
:10216000CF93DF93EA017A01E60EF71E8C01C801D6
:102170008A559E4FCE15DF0569F00A3522E0120719
:1021800020F40E949433888301C0188221960F5F47
:102190001F4FEDCFDF91CF911F910F91FF90EF90E7
:1021A0000895EF92FF920F931F93CF93DF93EA016D
:1021B0007A01E60EF71E8C01C8018A559E4FCE1596
:1021C000DF0559F00A3522E0120718F468810E94F1
:1021D000A23321960F5F1F4FEFCFDF91CF911F9159
:1021E0000F91FF90EF900895CF93DF93C6EAD1E06F
:1021F00060E0CE010E94A2332196C11584E0D80789
:10220000B9F7DF91CF910895DF92EF92FF920F938C
:102210001F93CF93DF9300D000D0CDB7DEB7F82E59
:102220008FE08F15E8F18FEF93E00E9494338111D6
:1022300037C006EA11E0FF2069F0011584E01807B5
:1022400079F1C8010E949433811101C0FA940F5FA3
:102250001F4FF1CF19821A821B821C82DD24D39476
:1022600078018FEFE81AF80AC8010E949433898335
:102270001A828823A9F09FEF980F933058F48A832D
:10228000D9820E5F1F4FC7010E9494338B8388232E
:1022900039F07801CE0101960E942B098701E0CF29
:1022A0000F900F900F900F90DF91CF911F910F9192
:1022B000FF90EF90DF9008950F931F93CF93DF93DC
:1022C000C62FD42F122FFC0182818823C9F060937E
:1022D000C0010E94DB219093BF018093BE0180E288
:1022E0008C0F883008F057C0C77081E001C0880F9C
:1022F000CA95EAF7DF91CF911F910F910C94861741
:102300008091C001681330C08091BE019091BF01DF
:102310000E94F321883C910538F500E20D0FCD179E
:10232000B9F080E28C0F883040F4C77081E001C0C2
:10233000880FCA95EAF70E948D17083028F581E0CA
:102340009D2F977001C0880F9A95EAF70E94861713
:10235000812F0E9473170830F0F4D77081E001C01C
:10236000880FDA95EAF70AC080E28C0F883098F47B
:10237000C77081E001C0880FCA95EAF7DF91CF915D
:102380001F910F910C948D17812FDF91CF911F9189
:102390000F910C947317DF91CF911F910F910895B6
:1023A0009C01CB01233F4CE53407F9F078F4283D3C
:1023B000FCE53F07B9F0293D4CE5340711F1273D15
:1023C0003C4531F526E241EE61EE1EC0253FFCE5BD
:1023D0003F0799F070F0263F3C45D1F427E245EEE7
:1023E00066EE12C027E245EE0EC026E241EE60EE38
:1023F0000BC027E245EE64EE07C026E241EE62EE36
:1024000003C028E241E065EE0E945C1180E008957F
:10241000FC018281882319F01092C001089581E0A7
:102420000895CF93DF93EC01FB018281882309F4A7
:102430001FC1C230FCE5DF0708F41BC1C6319CE5B3
:10244000D90738F09E012A5F3C452930310508F054
:1024500010C10E9471209093780280937702C0315E
:10246000ECE5DE0709F4C3C008F041C0C8308CE5D4
:10247000D80709F49AC0F0F4C430ECE5DE0709F49B
:1024800087C068F4C2308CE5D80709F477C0C33040
:10249000DC4509F0E3C080917702826076C0C630E7
:1024A000ECE5DE0709F46EC008F07BC0809177028E
:1024B00088606BC0CC308CE5D80709F485C068F41F
:1024C000CA30ECE5DE0709F474C008F079C00E9458
:1024D000351A80917702806858C0CE308CE5D807D5
:1024E00009F476C008F07FC0809177028BC0CB3FA3
:1024F000ECE5DE0709F44FC018F5C3318CE5D807C9
:1025000009F47DC078F4C131ECE5DE0709F473C04D
:10251000C231DC4509F0A2C00E94351A80917702D1
:102520008F7733C0C5318CE5D80709F472C008F441
:1025300086C0CA3FDC4509F091C0809178023EC058
:10254000CF3FFCE5DF0709F45FC058F4CD3F9CE5C1
:10255000D90709F444C008F43FC080917802826032
:102560002DC0C130FDE5DF0709F475C008F45DC07A
:10257000C230DD4509F072C080E06EC08091770204
:10258000816003C08091770280618093770266C08A
:102590008091770211C080917802826080937802E6
:1025A0005DC0809177028062F0CF80917702806475
:1025B000ECCF8091770288608460E7CF8160EECFB6
:1025C000809177028E7FE1CF809177028D7FDDCF82
:1025D00080917702877FD9CF8091780218C080914F
:1025E00078028D7FDBCF809177028F7ECECF809176
:1025F00077028F7DCACF809177028F7BC6CF809183
:102600007702877F8B7FC1CF809178028D7F8E7F0D
:10261000C5CF8091770282FB222720F991E0922793
:1026200090FB82F990FB83F9B0CF80917802982FCC
:10263000909591708E7F892B90FB81F9AFCF0E948E
:10264000351A8091770287FB222720F991E09227A3
:1026500090FB87F99ACF81E00E9400218091770258
:10266000909178020E9482200E94351A80E001C079
:1026700081E0DF91CF910895CF93DF9386319C4520
:1026800041F5EB010E949D1F982F8A81209117012F
:1026900030911801882379F09A7A81E009F480E07A
:1026A0008093C101911102C069E201C065E3C901D3
:1026B0000E9447210AC08091C101811102C069E2D4
:1026C00001C065E3C9010E9449210E94DE1F80E02C
:1026D00001C081E0DF91CF9108958EE1489B02C057
:1026E0008150E1F7489BFECF0895589880E28A9583
:1026F000F1F7589A0895FC012AE02A95F1F728E0AD
:1027000090E080E031E040E14A95F1F7880F489B86
:1027100002C08160932700C0000040E14A95F1F7B4
:10272000215089F720E12A95F1F729B100C0000076
:1027300030E13A95F1F7217092272081920F908332
:102740000895EF92FF920F931F93CF93DF931F9201
:10275000CDB7DEB719828C017C01E60EF11C0E1597
:102760001F0551F00E946D13CE0101960E947B134C
:10277000F80181938F01F3CF81E09981911180E07D
:102780000F90DF91CF911F910F91FF90EF900895DF
:102790009093C3018093C201509A589A08959093E0
:1027A000C3018093C2015098589AE89AE9E6F0E094
:1027B00080818C7F80830895615091E001C0990FE2
:1027C0006A95EAF720E031E0992361F0492F482328
:1027D00019F0589A232701C0589840E24A95F1F71A
:1027E0009695F2CF222311F0589A01C0589880E2B2
:1027F0008A95F1F758980895FF920F931F93CF93FE
:10280000DF93EC018C01060F111DC017D10741F0B9
:10281000F9900E94751368E08F2D0E94DC13F5CFAC
:10282000DF91CF911F910F91FF9008951F920F920A
:102830000FB60F9211242F933F934F935F936F9393
:102840007F938F939F93AF93BF93CF93DF93EF9338
:10285000FF935898509AC091C201D091C3016D81E5
:10286000662321F08E819F810E94FC130E947513C4
:1028700080E18A95F1F758985098589A80E18A95A6
:10288000F1F76A81662351F08B819C810E94A1132C
:10289000E881F981811104C082E003C0E881F981F7
:1028A00088E080830E946D13FF91EF91DF91CF91BB
:1028B000BF91AF919F918F917F916F915F914F9158
:1028C0003F912F910F900FBE0F901F901895CF93AF
:1028D000DF93C091C201D091C301F894509A5898E7
:1028E00085E08A95F1F700005098589A80E28A9521
:1028F000F1F7489B0AC0509A589AE881F98181E023
:102900008083789481E090E02CC06D81662381F013
:102910008E819F810E94A11381110AC0509A589AFA
:10292000E881F98182E08083789482E090E019C0A8
:102930000E946D1380E28A95F1F75898509A80E1D1
:102940008A95F1F76A81662321F08B819C810E9430
:10295000FC130E947513E881F9811082789480E05D
:1029600090E0DF91CF9108959093C9018093C801C1
:102970000895E091C801F091C901309721F00190CC
:10298000F081E02D099480E00895EF92FF920F937B
:102990001F93CF93DF93E091C801F091C901309765
:1029A000B1F18C010280F381E02D099580913F0205
:1029B00082FF2DC080FF04C083E893E00E94860759
:1029C000E80118E08DE7E82E83E0F82E80913F02C1
:1029D00080FF0BC088811F928F93FF92EF920E941D
:1029E0001F080F900F900F900F901150219611110A
:1029F000EDCF80913F0280FF0AC08BE793E0DF912B
:102A0000CF911F910F91FF90EF900C948607DF916B
:102A1000CF911F910F91FF90EF900895E091C80121
:102A2000F091C901309739F022E0DC012C93048049
:102A3000F581E02D099408952091C6013091C701D8
:102A40002817390771F09093C7018093C601E09170
:102A5000C801F091C901309721F00680F781E02D7F
:102A6000099408952091C4013091C50128173907B0
:102A700071F09093C5018093C401E091C801F09179
:102A8000C901309721F00084F185E02D0994089563
:102A900085B7806885BF85B7806885BF089508952C
:102AA0000C944F150C9450150C944F150C944F1515
:102AB0000E9448150E9454150C9452150E94D22170
:102AC0000E94510C0E94C50E0E947D220C94561546
:102AD000CF93C82F80913F0282FF1EC080FF04C0A9
:102AE0008CE993E00E94860780913F0280FF0CC032
:102AF0001F92CF9387E993E09F938F930E941F08C3
:102B00000F900F900F900F9080913F0280FF04C0B4
:102B100085E993E00E9486078C2FCF910C94A7093A
:102B2000AF92BF92CF92DF92EF92FF920F931F93DB
:102B3000CF93DF93CDB7DEB72A970FB6F894DEBFF9
:102B40000FBECDBF0E941E0D0E94200E811111C02C
:102B50008FEF89838A831B820E94DB218160782F1B
:102B60009D838C8349815A816B818D810E942816B7
:102B700040C08BECA82E81E0B82E00E010E0C02E03
:102B8000802F0E94F70BE82EF501D1905F01D82627
:102B900031F40F5F1F4F0830110589F7D9CF8091AD
:102BA0003F0281FD0E94FD0B80E0FF24F3949D2DE8
:102BB0009F21D1F08E83CF82EF2081E009F480E065
:102BC00088870E94DB218160782F9A8789874E81D0
:102BD0005F8168858A850E942816F801E553FE4FBB
:102BE0008081F826F08205C08F5FFF0C8630F9F6F1
:102BF000D0CF0E9491240E94B9149091CA018917E4
:102C0000B1F00E94B9148093CA012A960FB6F894C5
:102C1000DEBF0FBECDBFDF91CF911F910F91FF900F
:102C2000EF90DF90CF90BF90AF900C9468152A96EC
:102C30000FB6F894DEBF0FBECDBFDF91CF911F91CD
:102C40000F91FF90EF90DF90CF90BF90AF900895DD
:102C5000CF93DF93CDB7DEB72B970FB6F894DEBFD7
:102C60000FBECDBF4F83588769877A878B87DE0178
:102C7000119686E0FD0111928A95E9F785E0FE0143
:102C8000379601900D928A95E1F749815A816B81BF
:102C90007C818D819E810E94051D2B960FB6F89434
:102CA000DEBF0FBECDBFDF91CF910895FC018081C3
:102CB00091810E945E1F0895CF93882309F4A9C0D3
:102CC000C82F8238C1F40E94B91481FDA2C069E303
:102CD00080911701909118010E9447210E94DE1FE8
:102CE0002FEF81EE94E0215080409040E1F700C04A
:102CF000000069E319C0833801F50E94B91480FD12
:102D000088C063E580911701909118010E944721C6
:102D10000E94DE1F2FEF81EE94E021508040904012
:102D2000E1F700C0000063E5809117019091180160
:102D30000E944921CF910C94DE1F8438C1F40E9477
:102D4000B91482FD66C067E4809117019091180163
:102D50000E9447210E94DE1F2FEF81EE94E0215058
:102D600080409040E1F700C0000067E4DDCF8CEFC9
:102D70008C0F813AF8F48C2F0E94AC29811149C044
:102D80006C2F80911701909118010E9411218823C6
:102D900049F06C2F80911701909118010E944921F0
:102DA0000E94DE1F6C2F80911701909118010E94E4
:102DB0004721C0CF80E28C0F883048F4C77081E093
:102DC00001C0880FCA95EAF70E94A01FB3CFEBE5B8
:102DD000EC0FE33040F4F0E0EF56FE4F808190E0DE
:102DE000CF910C941C15E8E5EC0FE73150F4F0E0BE
:102DF000EE0FFF1FED59FE4F80819181CF910C9412
:102E00003215C03F30F08C2F0E941723CF910C94C5
:102E10000424CF910895882309F464C0823879F49A
:102E20000E94B91481FF5EC069E3809117019091FF
:102E300018010E9447210E94DE1F69E310C08338F9
:102E4000B1F40E94B91480FF4DC063E58091170171
:102E5000909118010E9447210E94DE1F63E5809136
:102E60001701909118010E9449210C94DE1F8438AB
:102E700079F40E94B91482FF35C067E4809117018C
:102E8000909118010E9447210E94DE1F67E4E7CF5E
:102E90009CEF980F913A10F4682FE1CF90E2980FD1
:102EA000983050F4877091E001C0990F8A95EAF745
:102EB000892F0E94A61FD9CF9BE5980F933020F44D
:102EC00080E090E00C941C1598E5980F973120F461
:102ED00080E090E00C943215803F20F00E947F2328
:102EE0000C9404240895CF93C82F0E945C16C93314
:102EF00049F42FEF87EE93E0215080409040E1F7B6
:102F000000C000008C2FCF910C940B17882321F068
:102F10000E94A01F0C94DE1F0895882321F00E94B8
:102F2000A61F0C94DE1F0895CF92DF92EF92FF92BE
:102F30000F931F93CF93DF937C01D62FC72FFC01F4
:102F4000058102950F70128111110E94BD1F0E9410
:102F5000961F882379F0112369F080E28D0F883065
:102F600048F082E00E9428200E94961F91E0D82E0F
:102F7000D92601C0D12CCC2EC2948FE0C8228C2D32
:102F800090E08C30910508F0EDC1FC01E759FF4F4E
:102F90000C9473338C2F807FCF70882311F0C295EF
:102FA000C07F112399F0CC2309F4C8C180E28D0FB2
:102FB000883010F0D11104C08C2F0E94A01F03C0D4
:102FC0008C2F0E94B01F0E94DE1FB8C18D2F0E945F
:102FD0000B17CC2309F4C6C180E28D0F883010F0A6
:102FE000D11104C08C2F0E94A61F03C08C2F0E94F9
:102FF000B61F0E94DE1FB6C18C2F807FCF7080323B
:1030000011F0C295C07FDD2319F0D130C9F022C084
:10301000112371F0002341F0013031F40E94C31FED
:103020008C2B0E94CB1F9EC10E94C31F8C2B1DC0E6
:10303000002319F0013009F495C10E94D41F25C066
:10304000112321F0063008F08DC10EC0053008F0C4
:1030500089C11BC0112361F0002331F0F701858184
:1030600080FF6CC18F7085838C2F0E9486177AC178
:10307000002359F0D93309F072C1FFEF07EE13E0D6
:10308000F15000401040E1F768C18C2F0E948D176D
:1030900069C18C2F86958695837019F0813061F017
:1030A00061C1112321F08D2F9C2F937002C080E00D
:1030B00090E00E941C155EC1112321F08D2F9C2FE2
:1030C000937002C080E090E00E94321553C111233A
:1030D000F9F0D53F51F0D63F71F0D43FA9F480917B
:1030E00071029091720281600BC080917102909187
:1030F0007202826005C080917102909172028460B8
:1031000090937202809371028D2F0E9417231EC02C
:10311000D53F51F0D63F71F0D43FA9F480917102B0
:10312000909172028E7F0BC0809171029091720219
:103130008D7F05C080917102909172028B7F909378
:103140007202809371028D2F0E947F230E940424BB
:1031500011C18C2F837009F047C0111107C12D2FA9
:10316000229526952770220F220F6D2F6F70862FC4
:1031700090E0A0E0B0E0022E04C0880F991FAA1FC3
:10318000BB1F0A94D2F7D4FF10C04FE050E060E0BC
:1031900070E004C0440F551F661F771F2A95D2F7B1
:1031A000409550956095709503C040E050E0BA019D
:1031B000C695C695C3708A019B01082B192B2A2B33
:1031C0003B2BC901B801C23049F058F4C13019F0A5
:1031D0000E94D91DCBC00E94C71DC8C00E94EB1D14
:1031E000C5C00E94C51DC2C0112319F08C2F81706B
:1031F00001C08695882309F4B9C02D2F2295269504
:103200002770220F220F6D2F6F70862F90E0A0E0A5
:10321000B0E0022E04C0880F991FAA1FBB1F0A949A
:10322000D2F7D4FF10C04FE050E060E070E004C07F
:10323000440F551F661F771F2A95D2F7409550956A
:103240006095709503C040E050E0BA01C695C69500
:10325000C3708A019B01082B192B2A2B3B2BC90118
:10326000B801C23049F058F4C13019F00E949E1ED6
:103270007DC00E948C1E7AC00E94B01E77C00E9442
:10328000FF1D74C0CF70112339F08C2F0E94251EB2
:103290008D2F0E9486176AC08D2F0E948D178C2F4C
:1032A0000E94461E63C0D23F01F128F4D03F41F096
:1032B000D13FA1F03FC0D33FF9F0D43F39F13AC03C
:1032C000112341F0053008F04DC08C2F8F710E9402
:1032D0006B1E48C0063008F045C0F7CF112339F007
:1032E0008C2F8F710E94251E3DC01123C9F38C2F96
:1032F0008F710E94461E36C0112329F08C2F8F71CA
:103300000E94101E2FC00E940B1E2CC0112349F0DA
:10331000CF718C2F0E94251E63E08C2F0E941320FA
:1033200021C081E00E9428200230E0F082E00E946B
:10333000282018C0112331F0002391F28D2F0E9414
:103340005C1610C0002399F2D93349F41FEF27EE21
:1033500033E0115020403040E1F700C000008D2FD5
:103360000E940B1788EF8C0D843020F40E94B91452
:103370000E94A709DD20C9F00E94921F80FD15C0A0
:10338000F70112820E948C1F0E94251EC7010E9415
:10339000F6190E948C1FDF91CF911F910F91FF9022
:1033A000EF90DF90CF900C94461EDF91CF911F914C
:1033B0000F91FF90EF90DF90CF9008950F931F93A0
:1033C000CF93DF93EC01688179818A810E94691F24
:1033D0008C010E94C21E0E94B31DB801CE010E9442
:1033E0009417DF91CF911F910F910895CF93DF93A1
:1033F000FC019081818123813481232B31F08F3F27
:1034000031F481E09F3F19F403C081E001C080E006
:1034100080FD0EC0EF01CF010E94C009882341F05A
:10342000CE010E94DE19CE01DF91CF910C946A0883
:10343000DF91CF9108950E94BD1F0E94C01F0E947E
:10344000DE1F0E94B0250E94042480E090E00E94CC
:103450001C1580E090E00C9432158091170190913A
:1034600018010E944B210C941B1A0E94AD1F0C9452
:103470002D1AE92FE295EF704E2F50E0FA013297A6
:10348000EE30F105B0F4EB58FF4F0C947333803FEE
:1034900091F018F4883E68F40EC0843F51F40BC0DC
:1034A000883E48F0813F29F406C093FB882780F9C5
:1034B000089580E0089581E008950E945E1F0E94B3
:1034C000391A0895CF93DF9300D000D01F92CDB763
:1034D000DEB70F900F900F900F900F90DF91CF916C
:1034E0000895CF93DF9300D000D000D0CDB7DEB7E2
:1034F00026960FB6F894DEBF0FBECDBFDF91CF91F9
:1035000008951F93CF93DF93C091D40116E080916B
:10351000D501C81799F0D0E01C9FF0011D9FF00D58
:103520001124EA52FE4F408151816281738184816E
:1035300095810E94711A2196C770E9CFDF91CF91D2
:103540001F91089540910602509107026091080270
:103550007091090280910A0290910B020C94711AE9
:10356000CF9380910B0282958F7009F05FC080919C
:103570000802882309F45AC08091D401B091D50182
:1035800070910602A09107024091090250910A022F
:1035900091E07F3F09F090E0692FC6E08B1709F4B6
:1035A00045C04115510521F0AF3F21F020E003C097
:1035B00021E001C0262F90E020FD35C0C89FF0011A
:1035C000C99FF00D1124EA52FE4F21812A132BC00E
:1035D0002081271328C02281211125C02381348115
:1035E0002417350710F421503109241B350B283CD2
:1035F0003105C8F420910B022F70206120930B023B
:1036000026E0289FF001299FF00D1124E552FE4F7E
:1036100080818F708061808386E092E00E94F6193D
:10362000CF910C94811A01968770B8CFCF910895ED
:10363000AF92BF92CF92DF92EF92FF920F931F93C0
:10364000CF93DF93CDB7DEB761970FB6F894DEBFA7
:103650000FBECDBF8C0185E0F801DE011D96019003
:103660000D928A95E1F7D8014C9111965C911197D2
:103670001296EC9030910602609107028091090247
:1036800090910A02009731F06F3F31F421E03F3F03
:1036900019F403C021E001C020E0B22FB170BB2EAD
:1036A00020FD60C1F801C380D480A0900802AA2048
:1036B00009F4EEC020910B02C816D90628F0D601F5
:1036C000A81BB90BCD0104C0809590958C0D9D1D54
:1036D000FF24F394883C910580F0F12C207F09F0C1
:1036E0009CC07C2DD98AC88A6E2D89890E94621A55
:1036F00086E092E00E94F6192DC1822F807F09F0AA
:1037000054C0561314C0431312C0FE2CE1100FC056
:103710002F70206120930B020E94A21A86E092E093
:103720000E94F61980910B02F80185835CC1CD28B7
:1037300031F05F3F31F481E04F3F19F403C081E085
:1037400001C080E080FD03C081E08E2502C080E0E2
:1037500090E0F82FF170FF2E80FF1CC08091D40103
:103760002091D50136E0821709F41AC190E0389F04
:10377000F001399FF00D1124EA52FE4F618156137A
:1037800006C06081461303C06281E61203C0019641
:103790008770E9CFFE2CEE2009F425C180910B0241
:1037A000816080930B02F12C1EC1561309C0431394
:1037B00007C0E11005C080910B02F8018583A4C009
:1037C0004D875E878D859E850E945D1A882379F1DD
:1037D000EE2069F120910B02822F82958F7090E08C
:1037E000029774F0809106029091070298878F8368
:1037F0001986DB86CA862C87CE0107960E94F619A9
:1038000086E0F801A6E0B2E001900D928A95E1F71A
:103810000E94B01A0E94A21A0DC0561771F04D876F
:103820005E878D859E850E945D1A81111AC0C80130
:103830000E94F619FF24F394D6C04313F0CFE11091
:10384000EECF80910B02F8018583C8010E94F61922
:1038500086E0E6E0F2E0DF011D928A95E9F7FA2CB6
:10386000C2C0EE2021F320910B02822F82958F702F
:1038700090E002972CF280910602909107029A83C1
:1038800089831B82DD82CC822E83CE010196B6CF46
:10389000C816D90628F0F601E81BF90BCF0104C0C1
:1038A000809590958C0D9D1D883C910548F0F12CDC
:1038B0007C2DD98AC88A6E2D89890E94621A4AC0D5
:1038C000FE2CEE2009F4B3CF561333C0431331C09E
:1038D00020910B0220FD24C0822F82958F70482FEB
:1038E00050E041155105E1F0D80115962C9315973C
:1038F0004F30510549F08F5F982F9295907F822F1E
:103900008F70892B15968C93C8010E94F61986E05A
:10391000F801A6E0B2E001900D928A95E1F73DC072
:1039200086E0F801A6E0B2E001900D928A95E1F7F9
:103930005AC04D875E878D859E850E945D1A8111D4
:103940005FCF80910B02816080930B02C8010E94BF
:10395000F61949C0E6E0F2E086E0DF011D928A95A3
:10396000E9F71BC0EE2009F462CF4D875E878D8595
:103970009E850E945D1AF82E882309F458CF86E0B0
:10398000F801A6E0B2E001900D928A95E1F786E099
:1039900092E00E9456160E94B01A0E94A21A23C0FA
:1039A0004D875E878D859E850E945E1F292F2295FB
:1039B0002F70223028F49F7039F0811105C00BC0A0
:1039C000243028F49F7049F4805E883020F0C801CC
:1039D0000E94F619BF2CFB2C06C0D80115969C91AD
:1039E000907F91F7F8CF8F2D61960FB6F894DEBFD8
:1039F0000FBECDBFDF91CF911F910F91FF90EF9040
:103A0000DF90CF90BF90AF9008951F93CF93DF9337
:103A1000CDB7DEB72C970FB6F894DEBF0FBECDBF83
:103A20004F83588769877A878B879C87CE01079653
:103A30000E94181B8823D1F09F8188852A853B85A9
:103A4000232B31F08F3F31F481E09F3F19F403C005
:103A500081E001C080E080FD47C04F8158856985C5
:103A60007A858B859C850E94711A3EC086E0FE0196
:103A70003796DE01119601900D928A95E1F7FF814C
:103A8000E8856A857B856115710531F0EF3F31F47A
:103A900081E0FF3F19F403C081E001C080E080FDB8
:103AA00023C02091D50130E0C90101968770992784
:103AB0004091D40150E084179507F1F1F983EA832E
:103AC0007D836C8396E0929FD001939FB00D11246B
:103AD000AA52BE4FFE01319601900D929A95E1F7E0
:103AE0008093D5010E94811A16E08091D4019091B3
:103AF000D501891771F1189FC00111248A529E4F78
:103B00000E94181B882329F1E091D4011E9FF00127
:103B10001124EA52FE4F4081518162817381848178
:103B200095810E94711A8091D40190E0019687706E
:103B300099278093D401D9CF0E94351A1092D501CC
:103B40001092D401E6E0F2E086E0DF011D928A9552
:103B5000E9F72C960FB6F894DEBF0FBECDBFDF910C
:103B6000CF911F910895089508950C94B41D0C945D
:103B7000B51D0E94B71D60932E0270932F02809393
:103B80003002909331020C941B1A0C94B91D0F93C0
:103B90001F9300912E0210912F022091300230913C
:103BA0003102602B712B822B932B1F910F910C9460
:103BB000B91D0F931F9300912E0210912F02209197
:103BC00030023091310260237123822393231F91AD
:103BD0000F910C94B91D0F931F9300912E02109119
:103BE0002F02209130023091310260277127822705
:103BF00093271F910F910C94B91D0C94B41D0E9432
:103C0000FD1D60932A0270932B0280932C029093E7
:103C10002D020C941B1A60E070E0CB010C94FF1D88
:103C20000F931F9341E050E060E070E08A019B0138
:103C300004C0000F111F221F331F8A95D2F7C9013C
:103C4000B8011F910F910C94FF1D0F931F9341E03A
:103C500050E060E070E004C0440F551F661F771FFE
:103C60008A95D2F780912A0290912B02A0912C0282
:103C7000B0912D028A019B01082B192B2A2B3B2B7B
:103C8000C901B8011F910F910C94FF1D0F931F9351
:103C900041E050E060E070E004C0440F551F661F33
:103CA000771F8A95D2F740955095609570958091D1
:103CB0002A0290912B02A0912C02B0912D028A0130
:103CC0009B01082319232A233B23C901B8011F9113
:103CD0000F910C94FF1D0F931F9341E050E060E0A3
:103CE00070E004C0440F551F661F771F8A95D2F7F6
:103CF00080912A0290912B02A0912C02B0912D026A
:103D00008A019B01082719272A273B27C901B801E7
:103D10001F910F910C94FF1D0F931F9300912A0286
:103D200010912B0220912C0230912D02602B712BCF
:103D3000822B932B1F910F910C94FF1D0F931F93B8
:103D400000912A0210912B0220912C0230912D0219
:103D500060237123822393231F910F910C94FF1DE5
:103D60000F931F9300912A0210912B0220912C0295
:103D700030912D0260277127822793271F910F9181
:103D80000C94FF1D0895292F220F920F990F890F70
:103D9000E82FE695E695E695877051E001C0550F4E
:103DA0008A95EAF785E0E89FF0011124E45FFD4F72
:103DB00020E030E070E04081CB01022E02C09695F9
:103DC00087950A94E2F7817081958427852384275B
:103DD00081932F5F3F4F2530310569F70895292FD3
:103DE000220F920F990F890F682F66956695669539
:103DF000982F977085E0689FB001112440E050E053
:103E000080E0FB01E40FF51FE45FFD4F208130E00F
:103E1000092E02C0369527950A94E2F721703327C0
:103E2000042E01C0220F0A94EAF7822B4F5F5F4FE6
:103E30004530510531F70895BF92CF92DF92EF924E
:103E4000FF920F931F93CF93DF938C01C0902A02B0
:103E5000D0902B02E0902C02F0902D0280912E0247
:103E600090912F02A0913002B0913102C82AD92A34
:103E7000EA2AFB2ACFE1D0E0D701C6010C2E04C00C
:103E8000B695A795979587950A94D2F780FD04C0BB
:103E9000219790F7B12C07C0BC2EB8018C2F0E943F
:103EA0001E0A0197A9F38B2DDF91CF911F910F91DE
:103EB000FF90EF90DF90CF90BF900895CF93DF9366
:103EC000EC010E941C1FBE010E941E0ADF91CF91CF
:103ED00008951F93CF93DF93EB019091D301992322
:103EE00021F0CB010E945E1F13C0882349F0CB0153
:103EF0000E941C1F182F682FCE010E94C31E04C0F1
:103F0000CB010E94EF1E182FBE01812F0E941E0AB6
:103F1000DF91CF911F91089580913202859585950B
:103F200085950895809132028770089590913202AC
:103F3000977081E009F480E0089580913E02089531
:103F400090913E02892B80933E0208958095909136
:103F50003E02892380933E02089510923E02089506
:103F600090913D02892B80933D0208958095909118
:103F70003D02892380933D02089510923D020895E9
:103F800010923C02089580913302089508950C9494
:103F9000C61F0C94C71F90913302981721F080938D
:103FA00033020C94C91F089580913302882329F0AD
:103FB0001092330280E00C94C91F0895E09117011C
:103FC000F091180180913E028083E0911701F091F9
:103FD0001801908180913D02892B8083E091170127
:103FE000F0911801908180913C02892B808380910F
:103FF0003302882381F0E0911701F091180190813C
:10400000892B808380911701909118010E940521CE
:1040100081110E94D41F80911701909118010C9476
:10402000C5140C94C61F98E0899F90011124262B7B
:10403000209332020E94251E80913202859585953B
:1040400085950C9411201092320280E00C9411207E
:10405000209132028095822380933202982F9770AC
:1040600079F430E0482F082E000C550B2417350743
:1040700039F08595859585950E94461E0C942320E0
:1040800008959093B3018093B20108958295982F7B
:10409000937344E0949F900111248C7C86958695BF
:1040A000282B822F8575880F2A7A2695822B0895D2
:1040B0006FEF7FEF80E090E00C94C03380E090E001
:1040C0000E949C3321E08C3E9E4F09F020E0822F1D
:1040D000089582E090E00C94943383E090E00C9497
:1040E0009433CF9384E090E00E949433C82F81E210
:1040F00090E00E9494332C2F30E0A901582BCA0184
:10410000CF910895CF93C92F682F84E090E00E944B
:10411000A2336C2F81E290E0CF910C94A233AB01DB
:10412000BC018FE090E00C94B433AB01BC0183E19F
:1041300090E00C94B43360E070E0CB010C949520D7
:1041400060E070E0CB010E948F200C949B206CEE0D
:104150007EEF80E090E00E94C03360E082E090E07B
:104160000E94A23360E083E090E00E94A2331092AC
:104170002E0210922F02109230021092310260E053
:1041800084E090E00E94A23360E081E290E00E942F
:10419000A23360E085E090E00E94A23360E086E018
:1041A00090E00E94A2336FEF87E090E00E94A2337C
:1041B00040E050E0BA0188E090E00E94B43360E053
:1041C0008DE090E00E94A23340E050E0BA0188E127
:1041D00090E00E94B43360E087E190E00E94A23357
:1041E00040E050E0BA018CE190E00E94B43360E01E
:1041F00080E290E00E94A2330C94A0200C94A720AF
:10420000682F8EE090E00C94A233FC01329697E088
:1042100080E0915029F021912223D9F38F5FF9CFCB
:104220000895662349F0FC013296089621916217A1
:1042300029F0E817F907D1F780E0089581E00895A3
:104240009C01FC0132969FEF80E04191461789F076
:104250009F3F19F4411101C0982F8F5F8630A9F755
:104260009F3F39F0F901E90FF11D97FDFA9562833F
:10427000089508959C012A5F3F4FFC014281461337
:1042800001C01282019682179307B9F708950C9422
:1042900020210C943A21029626E0FC0111922A95E5
:1042A000E9F7089508950C9452210C945221CF936C
:1042B0000E9455210E941E0D0E945321C0E08C2FA8
:1042C0000E94F70B811104C0CF5FC830C1F701C055
:1042D00081E0CF9108950C9452210C946B210E949F
:1042E0006D2180917D02843049F11092400220E4DA
:1042F00088E190E00FB6F894A895809360000FBE17
:104300002093600080E00E94A7090E946D2183B77E
:10431000817F846083BF83B7816083BF78948895F1
:1043200083B78E7F83BF0FB6F894A8958091600005
:10433000886180936000109260000FBE08950C9415
:1043400052210E94351A0E94B9140E94A7090C94A8
:104350009F211F920F920FB60F9211248F939F935C
:10436000AF93BF9380914002811113C0809173027B
:1043700090917402A0917502B09176024196A11DB0
:10438000B11D8093730290937402A0937502B09351
:104390007602BF91AF919F918F910F900FBE0F90BA
:1043A0001F90189582E084BD93E095BD9AEF97BD6C
:1043B00080936E0008952FB7F894809173029091C6
:1043C0007402A0917502B09176022FBF08952FB7A5
:1043D000F8946091730270917402809175029091CB
:1043E00076022FBF0895CF92DF92EF92FF920F9344
:1043F0001F932FB7F894409173025091740260910B
:104400007502709176022FBF6A017B01EE24FF24B2
:104410008C0120E030E0C016D106E206F30610F46D
:10442000415051099A01281B390BC9011F910F9165
:10443000FF90EF90DF90CF90089578941F920F92A5
:104440000FB60F9211248F939F93AF93BF938091D8
:10445000730290917402A0917502B0917602019658
:10446000A11DB11D8093730290937402A0937502F5
:10447000B0937602BF91AF919F918F910F900FBE35
:104480000F901F90189581E08093E00080E2809368
:10449000D8001092C9008FE19EE40197F1F700C0A7
:1044A000000087E090EBDC01809386029093870206
:1044B000A0938802B09389029CE088E10FB6F8943B
:1044C000A895809360000FBE90936000FFCF0C947E
:1044D000B20E0E941E0D8FE39CE90197F1F700C018
:1044E00000000E941E0D80E00E94F70B80FF04C0B8
:1044F0000E9467220C94432208950E945E2081113D
:1045000002C00E94FE200E94692080933F020E9408
:10451000712090937802809377020E946D20682F1B
:1045200070E080E090E00C94C51D8091480280FF0F
:104530000BC060911E0185E0689FB0011124759544
:104540006795759567952BC081FF09C060911E0125
:1045500085E0689FB00111247595679520C082FFA2
:1045600007C060911E0185E0689FB001112417C04B
:10457000909147029923D1F060911D01961788F719
:1045800020911E0185E0289F90011124929FA00197
:10459000939F500D112470E0CA010E945F33603870
:1045A000710540F46115710519F406C065E070E00D
:1045B000862F08958FE7089581E00895809148023D
:1045C00080FF08C060911A0170E075956795759538
:1045D000679521C081FF06C060911A0170E0759552
:1045E000679519C082FF04C060911A0170E010C085
:1045F00090914702992399F0609119019617A0F7BD
:1046000080911A01899FC001112470E00E945F33DC
:104610006038710540F46115710519F406C061E058
:1046200070E0862F08958FE7089581E00895803F18
:1046300021F40E949522819504C0813F29F40E94B3
:10464000952280934C020895823F21F40E94952286
:10465000819504C0833F29F40E94952280934B02E8
:104660000895893F19F40E94DE2205C08A3F31F483
:104670000E94DE22819580934D0208958B3F21F4A4
:104680000E94DE22819504C08C3F29F40E94DE2224
:1046900080934E020895843F21F480914A02816004
:1046A00017C0853F21F480914A02826011C0863F85
:1046B00021F480914A0284600BC0873F21F48091ED
:1046C0004A02886005C0883F31F480914A028061C7
:1046D00080934A0208958D3F21F4809148028160C1
:1046E0000BC08E3F21F480914802826005C08F3F4D
:1046F00029F4809148028460809348020895803FA5
:1047000039F480914C0287FF6CC010924C0269C052
:10471000813F29F480914C021816BCF362C090913D
:104720004B02823F29F497FF5CC010924B0259C0A4
:10473000833F19F41916CCF354C0893F41F480919A
:104740004D0218160CF04DC010924D024AC08A3F1F
:1047500029F480914D0287FF44C0F6CF8B3F39F496
:1047600080914E0287FF3DC010924E023AC08C3FAE
:1047700029F480914E021816BCF333C0843F21F413
:1047800080914A028E7F17C0853F21F480914A02B2
:104790008D7F11C0863F21F480914A028B7F0BC030
:1047A000873F21F480914A02877F05C0883F31F41A
:1047B00080914A028F7E80934A0213C08D3F21F47C
:1047C000809148028E7F0BC08E3F21F48091480279
:1047D0008D7F05C08F3F29F4809148028B7F8093A5
:1047E000480280914B0281110EC080914C028111D0
:1047F0000AC080914D02811106C080914E02811144
:1048000002C010924702089580913F0283FF7EC04C
:1048100086ED93E00E94860780914A021F928F9353
:1048200081ED93E09F938F930E941F088FEC93E09C
:104830000E94860780914B02282F082E000C330B14
:104840003F938F938CEC93E09F938F930E941F086C
:104850008AEC93E00E94860780914C02282F082E54
:10486000000C330B3F938F9387EC93E09F938F93D0
:104870000E941F0885EC93E00E94860780914D02FC
:10488000282F082E000C330B3F938F9382EC93E07C
:104890009F938F930E941F0880EC93E00E948607ED
:1048A00080914E02282F082E000C330B3F938F93DC
:1048B0008DEB93E09F938F930E941F088AEB93E008
:1048C0000E948607809147021F928F9387EB93E0A7
:1048D0009F938F930E941F0885EB93E00E948607A9
:1048E000809148021F928F9382EB93E09F938F9366
:1048F0000E941F088FEA93E00E9486078DB79EB73B
:104900004C960FB6F8949EBF0FBE8DBF89E492E01F
:104910000E940E150E94DB2190934602809345026F
:104920000895CF93DF9300D000D000D0CDB7DEB78D
:1049300086E0E9E4F2E0DE01119601900D928A959D
:10494000E1F780914B02811105C080914C028823D0
:1049500009F47AC080914302909144020E94F321AD
:10496000AC0190914702992339F020911F0130E06A
:104970002417350758F068C0209120018AE0289F4D
:10498000900111242417350718F05EC09F3F19F0DD
:104990009F5F9093470210924D0210924E028091B9
:1049A0004B02181624F40E94952280934B028091AA
:1049B0004B0287FF05C00E949522819580934B0290
:1049C00080914C02181624F40E94952280934C0288
:1049D00080914C0287FF05C00E94952281958093AB
:1049E0004C0230914B023323E1F020914C02222300
:1049F000C1F045EB3403C0011124992319F09093C1
:104A00004B0203C081E080934B0235EB2303C001CE
:104A10001124992319F090934C0203C081E08093F4
:104A20004C020E940424809145029091460290938A
:104A300044028093430286E0FE013196A9E4B2E08D
:104A400001900D928A95E1F780914D02811105C088
:104A500080914E02882309F47AC08091410290919E
:104A600042020E94F321AC0190914702992339F050
:104A700020911B0130E02417350758F068C02091C1
:104A80001C018AE0289F900111242417350718F093
:104A90005EC09F3F19F09F5F9093470210924B02B8
:104AA00010924C0280914D02181624F40E94DE22CE
:104AB00080934D0280914D0287FF05C00E94DE2247
:104AC000819580934D0280914E02181624F40E9425
:104AD000DE2280934E0280914E0287FF05C00E9425
:104AE000DE22819580934E0230914D023323E1F016
:104AF00020914E022223C1F045EB3403C001112462
:104B0000992319F090934D0203C081E080934D02E8
:104B100035EB2303C0011124992319F090934E0221
:104B200003C081E080934E020E94042480914502DC
:104B300090914602909342028093410286E0FE01EA
:104B40003196A9E4B2E001900D928A95E1F726969C
:104B50000FB6F894DEBF0FBECDBFDF91CF910895A1
:104B6000E9E4F2E086E0DF011D928A95E9F7109210
:104B7000470210924802089589EF95E00E94860747
:104B80001F9281E08F931F9285E08F938BEA95E0CF
:104B90009F938F930E941F080F900F900F900F907C
:104BA0000F900F9008958330E9F128F4813061F07F
:104BB000823009F10895853009F462C008F449C0D3
:104BC000863009F474C0089580912001262F30E0CA
:104BD000280F311D2F3F310524F4680F6093200109
:104BE00003C08FEF80932001809120011F928F934B
:104BF00084EE94E072C080911F01262F30E0280FD0
:104C0000311D2F3F310524F4680F60931F0103C04D
:104C10008FEF80931F0180911F011F928F9382ED70
:104C200094E05BC080911E01262F30E0280F311DDB
:104C30002F3F310524F4680F60931E0103C08FEFEE
:104C400080931E0180911E011F928F938FEB94E041
:104C500044C080911D01262F30E0280F311D2F3FC9
:104C6000310524F4680F60931D0103C08FEF80931A
:104C70001D0180911D011F928F938AEA94E02DC03F
:104C800080911A01262F30E0280F311D2F3F31056A
:104C900024F4680F60931A0103C08FEF80931A0108
:104CA00080911A011F928F9381E994E016C0809140
:104CB0001901262F30E0280F311D2F3F310524F434
:104CC000680F6093190103C08FEF809319018091E1
:104CD00019011F928F9386E794E09F938F930E9410
:104CE0001F080F900F900F900F900895833081F15F
:104CF00028F4813059F08230D1F00895853009F4DC
:104D000049C0B8F1863009F456C008958091200159
:104D1000681720F4861B8093200102C010922001A6
:104D2000809120011F928F9387E694E054C0809178
:104D30001F01681720F4861B80931F0102C0109288
:104D40001F0180911F011F928F9385E594E043C05E
:104D500080911E01681720F4861B80931E0102C0FB
:104D600010921E0180911E011F928F9382E494E0A5
:104D700032C080911D01681720F4861B80931D01AD
:104D800002C010921D0180911D011F928F938DE230
:104D900094E021C080911A01681720F4861B80934B
:104DA0001A0102C010921A0180911A011F928F936A
:104DB00084E194E010C080911901681720F4861BEB
:104DC0008093190102C010921901809119011F925C
:104DD0008F9389EF93E09F938F930E941F080F900A
:104DE0000F900F900F900895CF93C82F1F928F931D
:104DF0008EEF96E09F938F930E941F0881E090E0D2
:104E0000A0E0B0E0BC01CD0104C0660F771F881F91
:104E1000991FCA95D2F70E94C51D0F900F900F9051
:104E20000F90CF910C94351ACF93DF938B3109F407
:104E3000F9C108F08FC18B3009F4B2C108F065C127
:104E4000863009F4B0C120F4853009F4BEC16CC2CB
:104E5000873009F4CCC1883009F066C28AE59CE04D
:104E60000E9486078BEA9BE00E9486070E946D20C5
:104E70001F928F9388EA9BE09F938F930E941F0855
:104E800086EA9BE00E9486070E946920C82F83E97A
:104E90009BE00E9486071F92CF938EE89BE09F9332
:104EA0008F930E941F088CE89BE00E94860782E88F
:104EB0009BE00E9486078C2F81701F928F938FE753
:104EC0009BE09F938F930E941F088DE79BE00E94B9
:104ED000860783E79BE00E948607C1FB882780F94D
:104EE0001F928F9380E79BE09F938F930E941F08F0
:104EF0008EE69BE00E94860782E69BE00E94860782
:104F0000C2FB882780F91F928F938FE59BE09F93C8
:104F10008F930E941F088DE59BE00E94860784E521
:104F20009BE00E948607C3FBCC27C0F91F92CF935A
:104F300081E59BE09F938F930E941F088FE49BE085
:104F40000E9486070E947120EC018BE39BE00E9487
:104F50008607DF93CF9386E39BE09F938F930E9416
:104F60001F0884E39BE00E9486078BE19BE00E9480
:104F700086078C2F81701F928F9388E19BE09F930F
:104F80008F930E941F088DB79EB780960FB6F89436
:104F90009EBF0FBE8DBF86E19BE00E9486078FEF0C
:104FA0009AE00E948607C1FB882780F91F928F93A1
:104FB0008CEF9AE09F938F930E941F088AEF9AE0EC
:104FC0000E94860788EE9AE00E9486078D2F8170E6
:104FD0001F928F9385EE9AE09F938F930E941F08F4
:104FE00083EE9AE00E94860781ED9AE00E94860790
:104FF000D695D1701F92DF938EEC9AE09F938F939A
:105000000E941F088CEC9AE00E9486078AEB9AE0C7
:105010000E948607C2FB882780F91F928F9387EB37
:105020009AE09F938F930E941F0885EB9AE00E945D
:10503000860783EA9AE00E948607C3FB882780F9E7
:105040001F928F9380EA9AE09F938F930E941F088C
:105050008EE99AE00E94860784E99AE00E9486071A
:10506000C4FB882780F91F928F9381E99AE09F9370
:105070008F930E941F088FE89AE00E9486078DE7B1
:105080009AE00E948607C5FB882780F91F928F93BC
:105090008AE79AE09F938F930E941F0888E79AE01F
:1050A0000E9486078CE59AE00E948607C6FB882747
:1050B00080F91F928F9389E59AE09F938F930E94C6
:1050C0001F088DB79EB780960FB6F8949EBF0FBE8F
:1050D0008DBF87E59AE00E9486078FE49AE00E94E0
:1050E0008607C7FBCC27C0F91F92CF938CE49AE0C8
:1050F0009F938F930E941F088AE49AE00E9486077C
:105100000F900F900F900F9049C0803109F4B4C0F8
:1051100020F48E3009F49AC007C1863109F4C7C063
:10512000893109F001C181E798E00E94860786E491
:1051300098E00E94860785E098E00E9486078DEC43
:1051400097E00E94860787E997E00E9486078CE631
:1051500097E08FC08A32E1F060F4873209F4E0C052
:1051600028F48E3108F4E0C08D51DBC0893269F13A
:10517000DBC0833448F48A3308F0D0C0853309F4A7
:10518000CFC0883369F0D0C0833409F4C9C0CCC023
:1051900089E49CE00E9486070E94FE20C1E0C9C00D
:1051A00087EA98E066C080913F02817F8E7F80937E
:1051B0003F0280E898E00E94860785E49CE00E9418
:1051C000860781E080935002E9CF0E94351A89E278
:1051D0009CE00E9486079FEF23ED80E391502040E2
:1051E0008040E1F700C000000E944322D7CF8091A9
:1051F0003F02C82FC095C170C0FB80F980933F0269
:10520000CC2329F08DE19CE00E94860792C080E1CA
:105210009CE00E94860780913F02897F877F809370
:105220003F02BCCF90913F0291FBCC27C0F981E0B7
:10523000C827892FC0FB81F980933F02CC2319F046
:1052400083E09CE029C085EF9BE013C090913F0272
:1052500092FBCC27C0F981E0C827892FC0FB82F9D7
:1052600080933F02CC2319F086EE9BE015C086EDBB
:105270009BE00E94860792CF90913F0293FBCC2740
:10528000C0F981E0C827892FC0FB83F980933F02D2
:10529000CC2351F08AEC9BE00E94860780913F026C
:1052A000816080933F0245C08DEB9BE0E2CF8EE5AD
:1052B00097E00E9486070E94B9141F928F9384E49E
:1052C00097E09F938F930E941F0880912B011F925C
:1052D0008F938DE297E09F938F930E941F08809198
:1052E0005D021F928F938AE197E09F938F930E94B4
:1052F0001F080E94E7219F938F937F936F9383E012
:1053000097E09F938F930E941F088DB79EB7429698
:105310000FB6F8949EBF0FBE8DBF40CF895301C01A
:1053200080E00E94F4263ACF8BEB9BE00E94860738
:10533000C0E08C2FDF91CF91089580E008950C9408
:105340009D298E518A3030F4E82FF0E0EC56FE4F64
:105350008081089580E00895CF93C82F80915002F6
:10536000813059F020F0823009F445C039C10E94E3
:105370009D1F823209F036C104C00E949D1F8232F7
:1053800061F48C2F0E949F29811104C08C2F0E94F0
:1053900014272FC081E090E02CC08C2F0E949D2903
:1053A000811126C0C431E1F070F4CB3081F0C031FE
:1053B000D1F40E94BC2586EF96E00E94860782E029
:1053C0008093500215C0C93259F0C83361F480E8A7
:1053D00098E00E9486078AEF96E00E94860708C040
:1053E0001092500201C184EF96E00E948607FCC033
:1053F00081E08170FBC0C43228F5CE3108F0C1C015
:10540000CB30A1F1D0F4C73009F0D0C08EE1809349
:10541000200182E380931F018AE080931E0184E1D2
:1054200080931D0188E080931A0188E2809319011E
:105430008AE995E00E948607BCC0C33149F1C431B6
:10544000C1F0B4C0CB3409F4A6C028F4C93289F045
:10545000C83361F0ABC0C13509F49BC0C23509F453
:1054600096C0CE3409F0A2C06AE09BC00E94BC2561
:10547000A0C080914F02882319F010924F0299C06A
:1054800087EA95E00E94860781E080935002AEC0D3
:1054900081E895E00E9486078FE695E00E948607E6
:1054A000809120011F928F938CE695E09F938F93BC
:1054B0000E941F088AE695E00E94860788E595E02D
:1054C0000E94860780911F011F928F9385E595E0CA
:1054D0009F938F930E941F0883E595E00E948607A3
:1054E00084E495E00E94860780911E011F928F93AD
:1054F00081E495E09F938F930E941F088FE395E0CE
:105500000E9486078EE295E00E94860780911D0129
:105510001F928F938BE295E09F938F930E941F08B9
:1055200089E295E00E94860784E195E00E94860763
:1055300080911A011F928F9381E195E09F938F9341
:105540000E941F088FE095E00E94860788EF94E094
:105550000E948607809119011F928F9385EF94E036
:105560009F938F930E941F0883EF94E00E94860709
:105570008DB79EB748960FB6F8949EBF0FBE8DBFED
:1055800018C08C2F0E94A12980934F0212C061E0A5
:1055900003C061E006C06AE080914F020E94D325FB
:1055A00008C080914F020E94762603C088E995E0EA
:1055B00013C080914F02882369F01F928F9382E974
:1055C00095E09F938F930E941F080F900F900F906C
:1055D0000F9004C08FE895E00E94860781E006C026
:1055E0001092500280E002C080E003CFCF91089576
:1055F00080915C0208959FB7F894109253029FBF68
:1056000090917D02943009F057C09091E9009F700D
:105610003091EC00232F217030FD20E8922B25E003
:105620002093E9002091EB0020FF43C02091EE0081
:1056300027FF3FC020915102222321F02091E80052
:1056400025FF37C01092510226E03091E80035FD69
:1056500015C030917D02343061F53091EB0035FD9D
:1056600028C0215021F481E08093510222C0EFE94B
:10567000FFE03197F1F700C00000E7CF8093F10021
:105680008091E80085FD0AC08091E80080FFFCCF92
:105690008091E8008E778093E80006C08FB7F89479
:1056A00021E0209353028FBF9F709093E90080E028
:1056B00008959F709093E9008FEF0895CF93DF9343
:1056C00000D01F92CDB7DEB790917D02943011F5D6
:1056D00089837B836A839093E9008FEF9091E80040
:1056E000815095FD06C095ED9A95F1F70000811166
:1056F000F5CF8091E80085FF0DC040E050E063E009
:1057000070E0CE0101960E946B2E8091E8008E77AA
:105710008093E8000F900F900F90DF91CF91089544
:10572000CF93DF93EC010E944E2E823011F0843033
:1057300031F4BE0184E0DF91CF910C945E2BDF91B8
:10574000CF910895BC0183E00C945E2BCF93DF933F
:10575000EC010E944E2E823011F08430F9F484E086
:105760008093E9008FEF9091E800815095FD06C08D
:1057700095ED9A95F1F700008111F5CF8091E80041
:1057800085FF0CC040E050E066E070E0CE010E9472
:105790006B2E8091E8008E778093E800DF91CF91A7
:1057A0000895CF93DF93EC010E944E2E823011F0CA
:1057B000843039F581E08093E9008FEF9091E80023
:1057C000815095FD06C095ED9A95F1F70000811185
:1057D000F5CF8091E80085FF14C040E050E068E01C
:1057E00070E0CE010E946B2E8091E8008E7780934E
:1057F000E80088E0FE01A4E5B2E001900D928A95F0
:10580000E1F7DF91CF910895CF93603219F52091A0
:105810007D022430F9F4C091E900CF703091EC00A2
:10582000232F217030FD20E8C22B22E02093E900D5
:105830002091E80020FF0BC040E050E060E270E003
:105840000E946B2E8091E8008E778093E800CF70E5
:10585000C093E900CF9108958AE89CE00E948607F2
:1058600080917C02811109C00E9447300E94A430BF
:105870008091E20084608093E200089586E89CE0D5
:105880000E94860710927C02089582E89CE00C94A6
:1058900086078EE79CE00C9486078AE79CE00E94CE
:1058A00086070C94A121209152022F5F822F62E380
:1058B0000E945333992319F02093520208951092B5
:1058C000520280915302882371F180917D028430CD
:1058D00041F58091E9008F702091EC00922F91703A
:1058E00020FD90E8892B95E09093E9009091EB00E2
:1058F00090FF14C09091EE0097FF10C09091E800C7
:1059000095FF03C01092F100F9CF9091E80090FF4D
:1059100005C09091E8009E779093E8008F70809387
:10592000E90010925302089542E061EC81E00E9488
:10593000C02F42E261EC84E00E94C02F42E261ECA1
:1059400082E00E94C02F42E260EC83E00E94C02F00
:1059500042E261EC85E00C94C02F80917F0283309D
:1059600009F462C030F4813071F0823009F49BC0D8
:1059700008958A3009F487C08B3009F46DC08930EE
:1059800009F0A9C020C080917E02813A09F0A3C02D
:105990008091E800877F8093E80080918202909157
:1059A0008302892B21F468E084E592E003C060E083
:1059B00080E090E070E00E94012F8091E8008B77FA
:1059C0008093E800089580917E02813209F083C0BF
:1059D0008091820290918302009719F0029709F05A
:1059E0007AC08091E800877F8093E8008091E8008A
:1059F00082FD05C080917D028111F8CF6CC020919D
:105A0000F3008091F20090E0922B029729F48091AC
:105A1000F1008B7F813021F48091F10080935C0252
:105A20008091E8008B7753C080917E02813A09F023
:105A300052C08091820290918302892B09F04BC061
:105A40008091E800877F8093E8008091E80080FFE4
:105A5000FCCF80912B0136C080917E028132D9F536
:105A60008091820290918302892BA9F58091E800B0
:105A7000877F8093E8000E94F52F809180028093B9
:105A80002B010C94351A80917E02813221F5809190
:105A9000E800877F8093E8000E94F52F80918102C3
:105AA00080935D02089580917E02813AA1F48091F5
:105AB000E800877F8093E8008091E80080FFFCCFBA
:105AC00080915D028093F1008091E8008E77809351
:105AD000E8000C94F52F08951F93CF93DF93CDB773
